{
  "_format": "hh-sol-artifact-1",
  "contractName": "DiamondHand",
  "sourceName": "contracts/DiamondHand.sol",
  "abi": [
    {
      "inputs": [
        {
          "internalType": "address",
          "name": "_PAYB",
          "type": "address"
        },
        {
          "internalType": "address",
          "name": "_TREASURY",
          "type": "address"
        }
      ],
      "stateMutability": "nonpayable",
      "type": "constructor"
    },
    {
      "anonymous": false,
      "inputs": [
        {
          "indexed": true,
          "internalType": "address",
          "name": "user",
          "type": "address"
        },
        {
          "indexed": false,
          "internalType": "uint256",
          "name": "amount",
          "type": "uint256"
        }
      ],
      "name": "Deposit",
      "type": "event"
    },
    {
      "anonymous": false,
      "inputs": [
        {
          "indexed": true,
          "internalType": "address",
          "name": "user",
          "type": "address"
        },
        {
          "indexed": false,
          "internalType": "uint256",
          "name": "amount",
          "type": "uint256"
        }
      ],
      "name": "EmergencyWithdraw",
      "type": "event"
    },
    {
      "anonymous": false,
      "inputs": [
        {
          "indexed": true,
          "internalType": "uint256",
          "name": "pid",
          "type": "uint256"
        },
        {
          "indexed": false,
          "internalType": "uint256",
          "name": "amount",
          "type": "uint256"
        },
        {
          "indexed": false,
          "internalType": "uint256",
          "name": "rewardDept",
          "type": "uint256"
        },
        {
          "indexed": true,
          "internalType": "uint256",
          "name": "apy",
          "type": "uint256"
        },
        {
          "indexed": false,
          "internalType": "uint256",
          "name": "depositedAt",
          "type": "uint256"
        },
        {
          "indexed": false,
          "internalType": "uint256",
          "name": "duration",
          "type": "uint256"
        },
        {
          "indexed": true,
          "internalType": "address",
          "name": "owner",
          "type": "address"
        }
      ],
      "name": "LogPoolAddition",
      "type": "event"
    },
    {
      "anonymous": false,
      "inputs": [
        {
          "indexed": true,
          "internalType": "uint256",
          "name": "pid",
          "type": "uint256"
        },
        {
          "indexed": false,
          "internalType": "uint256",
          "name": "apy",
          "type": "uint256"
        }
      ],
      "name": "LogUpdatePoolApySetting",
      "type": "event"
    },
    {
      "anonymous": false,
      "inputs": [
        {
          "indexed": true,
          "internalType": "uint256",
          "name": "pid",
          "type": "uint256"
        },
        {
          "indexed": false,
          "internalType": "uint256",
          "name": "duration",
          "type": "uint256"
        }
      ],
      "name": "LogUpdatePoolDurationSetting",
      "type": "event"
    },
    {
      "anonymous": false,
      "inputs": [
        {
          "indexed": true,
          "internalType": "address",
          "name": "from",
          "type": "address"
        },
        {
          "indexed": true,
          "internalType": "address",
          "name": "to",
          "type": "address"
        }
      ],
      "name": "LogUpdateTreasury",
      "type": "event"
    },
    {
      "anonymous": false,
      "inputs": [
        {
          "indexed": true,
          "internalType": "address",
          "name": "previousOwner",
          "type": "address"
        },
        {
          "indexed": true,
          "internalType": "address",
          "name": "newOwner",
          "type": "address"
        }
      ],
      "name": "OwnershipTransferred",
      "type": "event"
    },
    {
      "anonymous": false,
      "inputs": [
        {
          "indexed": true,
          "internalType": "address",
          "name": "user",
          "type": "address"
        },
        {
          "indexed": true,
          "internalType": "uint256",
          "name": "pid",
          "type": "uint256"
        },
        {
          "indexed": false,
          "internalType": "uint256",
          "name": "amount",
          "type": "uint256"
        },
        {
          "indexed": true,
          "internalType": "address",
          "name": "to",
          "type": "address"
        }
      ],
      "name": "Withdraw",
      "type": "event"
    },
    {
      "anonymous": false,
      "inputs": [
        {
          "indexed": true,
          "internalType": "address",
          "name": "user",
          "type": "address"
        },
        {
          "indexed": true,
          "internalType": "uint256[]",
          "name": "pids",
          "type": "uint256[]"
        },
        {
          "indexed": false,
          "internalType": "uint256",
          "name": "amount",
          "type": "uint256"
        },
        {
          "indexed": true,
          "internalType": "address",
          "name": "to",
          "type": "address"
        }
      ],
      "name": "WithdrawAll",
      "type": "event"
    },
    {
      "inputs": [],
      "name": "PAYB",
      "outputs": [
        {
          "internalType": "contract IERC20",
          "name": "",
          "type": "address"
        }
      ],
      "stateMutability": "view",
      "type": "function"
    },
    {
      "inputs": [],
      "name": "TREASURY",
      "outputs": [
        {
          "internalType": "address",
          "name": "",
          "type": "address"
        }
      ],
      "stateMutability": "view",
      "type": "function"
    },
    {
      "inputs": [],
      "name": "allClaimed",
      "outputs": [
        {
          "internalType": "uint256",
          "name": "",
          "type": "uint256"
        }
      ],
      "stateMutability": "view",
      "type": "function"
    },
    {
      "inputs": [
        {
          "internalType": "uint256",
          "name": "_amount",
          "type": "uint256"
        },
        {
          "internalType": "uint256",
          "name": "_poolSetting",
          "type": "uint256"
        }
      ],
      "name": "deposit",
      "outputs": [],
      "stateMutability": "nonpayable",
      "type": "function"
    },
    {
      "inputs": [],
      "name": "emergencyWithdraw",
      "outputs": [],
      "stateMutability": "nonpayable",
      "type": "function"
    },
    {
      "inputs": [],
      "name": "owner",
      "outputs": [
        {
          "internalType": "address",
          "name": "",
          "type": "address"
        }
      ],
      "stateMutability": "view",
      "type": "function"
    },
    {
      "inputs": [
        {
          "internalType": "uint256",
          "name": "_pid",
          "type": "uint256"
        },
        {
          "internalType": "address",
          "name": "_user",
          "type": "address"
        }
      ],
      "name": "pendingPAYB",
      "outputs": [
        {
          "internalType": "uint256",
          "name": "",
          "type": "uint256"
        }
      ],
      "stateMutability": "view",
      "type": "function"
    },
    {
      "inputs": [
        {
          "internalType": "uint256",
          "name": "",
          "type": "uint256"
        }
      ],
      "name": "poolInfo",
      "outputs": [
        {
          "internalType": "uint256",
          "name": "amount",
          "type": "uint256"
        },
        {
          "internalType": "uint256",
          "name": "rewardDebt",
          "type": "uint256"
        },
        {
          "internalType": "uint256",
          "name": "apy",
          "type": "uint256"
        },
        {
          "internalType": "uint256",
          "name": "depositedAt",
          "type": "uint256"
        },
        {
          "internalType": "uint256",
          "name": "duration",
          "type": "uint256"
        },
        {
          "internalType": "address",
          "name": "owner",
          "type": "address"
        },
        {
          "internalType": "bool",
          "name": "claimed",
          "type": "bool"
        }
      ],
      "stateMutability": "view",
      "type": "function"
    },
    {
      "inputs": [],
      "name": "poolLength",
      "outputs": [
        {
          "internalType": "uint256",
          "name": "",
          "type": "uint256"
        }
      ],
      "stateMutability": "view",
      "type": "function"
    },
    {
      "inputs": [
        {
          "internalType": "uint256",
          "name": "",
          "type": "uint256"
        }
      ],
      "name": "poolSetting",
      "outputs": [
        {
          "internalType": "uint256",
          "name": "duration",
          "type": "uint256"
        },
        {
          "internalType": "uint256",
          "name": "apy",
          "type": "uint256"
        }
      ],
      "stateMutability": "view",
      "type": "function"
    },
    {
      "inputs": [],
      "name": "renounceOwnership",
      "outputs": [],
      "stateMutability": "nonpayable",
      "type": "function"
    },
    {
      "inputs": [
        {
          "internalType": "address",
          "name": "newOwner",
          "type": "address"
        }
      ],
      "name": "transferOwnership",
      "outputs": [],
      "stateMutability": "nonpayable",
      "type": "function"
    },
    {
      "inputs": [
        {
          "internalType": "uint256",
          "name": "_setting",
          "type": "uint256"
        },
        {
          "internalType": "uint256",
          "name": "_apy",
          "type": "uint256"
        }
      ],
      "name": "updatePoolApySetting",
      "outputs": [],
      "stateMutability": "nonpayable",
      "type": "function"
    },
    {
      "inputs": [
        {
          "internalType": "uint256",
          "name": "_setting",
          "type": "uint256"
        },
        {
          "internalType": "uint256",
          "name": "_duration",
          "type": "uint256"
        }
      ],
      "name": "updatePoolDurationSetting",
      "outputs": [],
      "stateMutability": "nonpayable",
      "type": "function"
    },
    {
      "inputs": [
        {
          "internalType": "address",
          "name": "_treasury",
          "type": "address"
        }
      ],
      "name": "updateTreasury",
      "outputs": [],
      "stateMutability": "nonpayable",
      "type": "function"
    },
    {
      "inputs": [
        {
          "internalType": "address",
          "name": "_for",
          "type": "address"
        },
        {
          "internalType": "uint256",
          "name": "pid",
          "type": "uint256"
        }
      ],
      "name": "withdraw",
      "outputs": [],
      "stateMutability": "nonpayable",
      "type": "function"
    },
    {
      "inputs": [
        {
          "internalType": "address",
          "name": "_for",
          "type": "address"
        },
        {
          "internalType": "uint256[]",
          "name": "pids",
          "type": "uint256[]"
        }
      ],
      "name": "withdrawAll",
      "outputs": [],
      "stateMutability": "nonpayable",
      "type": "function"
    }
  ],
  "bytecode": "0x60a0604052606460055560006006553480156200001b57600080fd5b5060405162003966380380620039668339818101604052810190620000419190620002a1565b6000620000536200028260201b60201c565b9050806000806101000a81548173ffffffffffffffffffffffffffffffffffffffff021916908373ffffffffffffffffffffffffffffffffffffffff1602179055508073ffffffffffffffffffffffffffffffffffffffff16600073ffffffffffffffffffffffffffffffffffffffff167f8be0079c531659141344cd1fd0a4f28419497f9722a3daafe3b4186f6b6457e060405160405180910390a350600180819055508173ffffffffffffffffffffffffffffffffffffffff1660808173ffffffffffffffffffffffffffffffffffffffff1660601b8152505080600260006101000a81548173ffffffffffffffffffffffffffffffffffffffff021916908373ffffffffffffffffffffffffffffffffffffffff1602179055506040518060400160405280607881526020016002815250600460008081526020019081526020016000206000820151816000015560208201518160010155905050604051806040016040528061012c8152602001600a8152506004600060018152602001908152602001600020600082015181600001556020820151816001015590505060405180604001604052806102588152602001601e8152506004600060028152602001908152602001600020600082015181600001556020820151816001015590505060405180604001604052806103848152602001603c81525060046000600381526020019081526020016000206000820151816000015560208201518160010155905050505062000330565b600033905090565b6000815190506200029b8162000316565b92915050565b60008060408385031215620002b557600080fd5b6000620002c5858286016200028a565b9250506020620002d8858286016200028a565b9150509250929050565b6000620002ef82620002f6565b9050919050565b600073ffffffffffffffffffffffffffffffffffffffff82169050919050565b6200032181620002e2565b81146200032d57600080fd5b50565b60805160601c6135f062000376600039806105105280610a7c5280610ac8528061112c52806111dc528061127952806115b15280611a7e5280611aca52506135f06000f3fe608060405234801561001057600080fd5b506004361061010b5760003560e01c806396757f58116100a2578063e11cf0ab11610071578063e11cf0ab14610274578063e2bbb15814610290578063f2fde38b146102ac578063f3fef3a3146102c8578063f6cc8224146102e45761010b565b806396757f5814610212578063db2e21bc1461022e578063dd5a0ce414610238578063e0ac4f3d146102565761010b565b80636e63f873116100de5780636e63f873146101b2578063715018a6146101ce5780637f51bb1f146101d85780638da5cb5b146101f45761010b565b8063081e3eda146101105780631526fe271461012e5780632d2c5565146101645780633d9f18d414610182575b600080fd5b610118610315565b6040516101259190613381565b60405180910390f35b610148600480360381019061014391906124c5565b610322565b60405161015b979695949392919061340a565b60405180910390f35b61016c61039e565b6040516101799190612fa9565b60405180910390f35b61019c60048036038101906101979190612517565b6103c4565b6040516101a99190613381565b60405180910390f35b6101cc60048036038101906101c79190612408565b61065b565b005b6101d6610b9a565b005b6101f260048036038101906101ed91906123df565b610cd4565b005b6101fc610f02565b6040516102099190612fa9565b60405180910390f35b61022c60048036038101906102279190612553565b610f2b565b005b610236611063565b005b610240611271565b60405161024d9190613381565b60405180910390f35b61025e611277565b60405161026b9190613024565b60405180910390f35b61028e60048036038101906102899190612553565b61129b565b005b6102aa60048036038101906102a59190612553565b6113d3565b005b6102c660048036038101906102c191906123df565b61165a565b005b6102e260048036038101906102dd9190612460565b611803565b005b6102fe60048036038101906102f991906124c5565b611b82565b60405161030c92919061339c565b60405180910390f35b6000600380549050905090565b6003818154811061032f57fe5b90600052602060002090600602016000915090508060000154908060010154908060020154908060030154908060040154908060050160009054906101000a900473ffffffffffffffffffffffffffffffffffffffff16908060050160149054906101000a900460ff16905087565b600260009054906101000a900473ffffffffffffffffffffffffffffffffffffffff1681565b60006103ce6122ec565b600384815481106103db57fe5b90600052602060002090600602016040518060e001604052908160008201548152602001600182015481526020016002820154815260200160038201548152602001600482015481526020016005820160009054906101000a900473ffffffffffffffffffffffffffffffffffffffff1673ffffffffffffffffffffffffffffffffffffffff1673ffffffffffffffffffffffffffffffffffffffff1681526020016005820160149054906101000a900460ff16151515158152505090508273ffffffffffffffffffffffffffffffffffffffff168160a0015173ffffffffffffffffffffffffffffffffffffffff161461050b576040517f08c379a000000000000000000000000000000000000000000000000000000000815260040161050290613281565b60405180910390fd5b6000807f000000000000000000000000000000000000000000000000000000000000000073ffffffffffffffffffffffffffffffffffffffff166370a08231306040518263ffffffff1660e01b81526004016105679190612fa9565b60206040518083038186803b15801561057f57600080fd5b505afa158015610593573d6000803e3d6000fd5b505050506040513d601f19601f820116820180604052508101906105b791906124ee565b90506000811461064f57600083606001514203905083608001518111156105e057836080015190505b600081111561064d576000610619856080015161060b64e8d4a5100085611ba690919063ffffffff16565b611c1690919063ffffffff16565b905061064961063a64e8d4a510008760200151611c1690919063ffffffff16565b82611ba690919063ffffffff16565b9350505b505b81935050505092915050565b600260015414156106a1576040517f08c379a000000000000000000000000000000000000000000000000000000000815260040161069890613321565b60405180910390fd5b6002600181905550600082829050905060608167ffffffffffffffff811180156106ca57600080fd5b506040519080825280602002602001820160405280156106f95781602001602082028036833780820191505090505b5090506000821161073f576040517f08c379a000000000000000000000000000000000000000000000000000000000815260040161073690613241565b60405180910390fd5b6000805b838110156108dd576107536122ec565b600387878481811061076157fe5b905060200201358154811061077257fe5b90600052602060002090600602016040518060e001604052908160008201548152602001600182015481526020016002820154815260200160038201548152602001600482015481526020016005820160009054906101000a900473ffffffffffffffffffffffffffffffffffffffff1673ffffffffffffffffffffffffffffffffffffffff1673ffffffffffffffffffffffffffffffffffffffff1681526020016005820160149054906101000a900460ff16151515158152505090503373ffffffffffffffffffffffffffffffffffffffff168160a0015173ffffffffffffffffffffffffffffffffffffffff1614801561088857504261088682608001518360600151611c6c90919063ffffffff16565b105b801561089657508060c00151155b156108cf5782806001019350508686838181106108af57fe5b905060200201358484815181106108c257fe5b6020026020010181815250505b508080600101915050610743565b506000825111610922576040517f08c379a000000000000000000000000000000000000000000000000000000000815260040161091990613181565b60405180910390fd5b60008060005b8451811015610a51576000600386838151811061094157fe5b60200260200101518154811061095357fe5b90600052602060002090600602019050600081600001541180156109c85750600073ffffffffffffffffffffffffffffffffffffffff168160050160009054906101000a900473ffffffffffffffffffffffffffffffffffffffff1673ffffffffffffffffffffffffffffffffffffffff1614155b15610a43576109e4816001015485611c6c90919063ffffffff16565b93506109fd816000015484611c6c90919063ffffffff16565b9250600081600101819055506000816000018190555060018160050160146101000a81548160ff0219169083151502179055506006600081548092919060010191905055505b508080600101915050610928565b50610ac1600260009054906101000a900473ffffffffffffffffffffffffffffffffffffffff1633847f000000000000000000000000000000000000000000000000000000000000000073ffffffffffffffffffffffffffffffffffffffff16611cc1909392919063ffffffff16565b610b0c33827f000000000000000000000000000000000000000000000000000000000000000073ffffffffffffffffffffffffffffffffffffffff16611d4a9092919063ffffffff16565b8773ffffffffffffffffffffffffffffffffffffffff168787604051610b33929190612f79565b60405180910390203373ffffffffffffffffffffffffffffffffffffffff167f9f71289ca2de626464dc082b9a255c80801db3ec101f010f9e3be01eb0b6f04685604051610b819190613381565b60405180910390a4505050505060018081905550505050565b610ba2611dd0565b73ffffffffffffffffffffffffffffffffffffffff16610bc0610f02565b73ffffffffffffffffffffffffffffffffffffffff1614610c16576040517f08c379a0000000000000000000000000000000000000000000000000000000008152600401610c0d90613221565b60405180910390fd5b600073ffffffffffffffffffffffffffffffffffffffff1660008054906101000a900473ffffffffffffffffffffffffffffffffffffffff1673ffffffffffffffffffffffffffffffffffffffff167f8be0079c531659141344cd1fd0a4f28419497f9722a3daafe3b4186f6b6457e060405160405180910390a360008060006101000a81548173ffffffffffffffffffffffffffffffffffffffff021916908373ffffffffffffffffffffffffffffffffffffffff160217905550565b610cdc611dd0565b73ffffffffffffffffffffffffffffffffffffffff16610cfa610f02565b73ffffffffffffffffffffffffffffffffffffffff1614610d50576040517f08c379a0000000000000000000000000000000000000000000000000000000008152600401610d4790613221565b60405180910390fd5b600073ffffffffffffffffffffffffffffffffffffffff168173ffffffffffffffffffffffffffffffffffffffff1614158015610ddb5750600260009054906101000a900473ffffffffffffffffffffffffffffffffffffffff1673ffffffffffffffffffffffffffffffffffffffff168173ffffffffffffffffffffffffffffffffffffffff1614155b610e1a576040517f08c379a0000000000000000000000000000000000000000000000000000000008152600401610e1190613341565b60405180910390fd5b6000600260009054906101000a900473ffffffffffffffffffffffffffffffffffffffff16905081600260006101000a81548173ffffffffffffffffffffffffffffffffffffffff021916908373ffffffffffffffffffffffffffffffffffffffff160217905550600260009054906101000a900473ffffffffffffffffffffffffffffffffffffffff1673ffffffffffffffffffffffffffffffffffffffff168173ffffffffffffffffffffffffffffffffffffffff167f47b97c2d9ab240508b648a221f898595b464d23a20e6275f57059f97b38709af60405160405180910390a35050565b60008060009054906101000a900473ffffffffffffffffffffffffffffffffffffffff16905090565b610f33611dd0565b73ffffffffffffffffffffffffffffffffffffffff16610f51610f02565b73ffffffffffffffffffffffffffffffffffffffff1614610fa7576040517f08c379a0000000000000000000000000000000000000000000000000000000008152600401610f9e90613221565b60405180910390fd5b80600460008481526020019081526020016000206000015414158015610fcd5750600081115b61100c576040517f08c379a0000000000000000000000000000000000000000000000000000000008152600401611003906131a1565b60405180910390fd5b806004600084815260200190815260200160002060000181905550817fb852a6aebed48ee0743659f243a5dbba963b782087f8a0c798452786e101a562826040516110579190613381565b60405180910390a25050565b61106b611dd0565b73ffffffffffffffffffffffffffffffffffffffff16611089610f02565b73ffffffffffffffffffffffffffffffffffffffff16146110df576040517f08c379a00000000000000000000000000000000000000000000000000000000081526004016110d690613221565b60405180910390fd5b60065460038054905014611128576040517f08c379a000000000000000000000000000000000000000000000000000000000815260040161111f906130c1565b60405180910390fd5b60007f000000000000000000000000000000000000000000000000000000000000000073ffffffffffffffffffffffffffffffffffffffff166370a08231306040518263ffffffff1660e01b81526004016111839190612fa9565b60206040518083038186803b15801561119b57600080fd5b505afa1580156111af573d6000803e3d6000fd5b505050506040513d601f19601f820116820180604052508101906111d391906124ee565b905061122033827f000000000000000000000000000000000000000000000000000000000000000073ffffffffffffffffffffffffffffffffffffffff16611d4a9092919063ffffffff16565b3373ffffffffffffffffffffffffffffffffffffffff167f5fafa99d0643513820be26656b45130b01e1c03062e1266bf36f88cbd3bd9695826040516112669190613381565b60405180910390a250565b60065481565b7f000000000000000000000000000000000000000000000000000000000000000081565b6112a3611dd0565b73ffffffffffffffffffffffffffffffffffffffff166112c1610f02565b73ffffffffffffffffffffffffffffffffffffffff1614611317576040517f08c379a000000000000000000000000000000000000000000000000000000000815260040161130e90613221565b60405180910390fd5b8060046000848152602001908152602001600020600101541415801561133d5750600081115b61137c576040517f08c379a0000000000000000000000000000000000000000000000000000000008152600401611373906132e1565b60405180910390fd5b806004600084815260200190815260200160002060010181905550817fb80b0d3f2beaacf0e3018a967acbb197f5da4fd56de2cfab7295e6d42ef628ba826040516113c79190613381565b60405180910390a25050565b60026001541415611419576040517f08c379a000000000000000000000000000000000000000000000000000000000815260040161141090613321565b60405180910390fd5b6002600181905550600073ffffffffffffffffffffffffffffffffffffffff163373ffffffffffffffffffffffffffffffffffffffff161415611491576040517f08c379a000000000000000000000000000000000000000000000000000000000815260040161148890613261565b60405180910390fd5b600082116114d4576040517f08c379a00000000000000000000000000000000000000000000000000000000081526004016114cb90613141565b60405180910390fd5b6000811015611518576040517f08c379a000000000000000000000000000000000000000000000000000000000815260040161150f90613161565b60405180910390fd5b600260009054906101000a900473ffffffffffffffffffffffffffffffffffffffff1673ffffffffffffffffffffffffffffffffffffffff163373ffffffffffffffffffffffffffffffffffffffff1614156115a9576040517f08c379a00000000000000000000000000000000000000000000000000000000081526004016115a090613301565b60405180910390fd5b6115f63330847f000000000000000000000000000000000000000000000000000000000000000073ffffffffffffffffffffffffffffffffffffffff16611cc1909392919063ffffffff16565b611601338383611dd8565b3373ffffffffffffffffffffffffffffffffffffffff167fe1fffcc4923d04b559f4d29a8bfc6cda04eb5b0d3c460751c2402c5c5cc9109c836040516116479190613381565b60405180910390a2600180819055505050565b611662611dd0565b73ffffffffffffffffffffffffffffffffffffffff16611680610f02565b73ffffffffffffffffffffffffffffffffffffffff16146116d6576040517f08c379a00000000000000000000000000000000000000000000000000000000081526004016116cd90613221565b60405180910390fd5b600073ffffffffffffffffffffffffffffffffffffffff168173ffffffffffffffffffffffffffffffffffffffff161415611746576040517f08c379a000000000000000000000000000000000000000000000000000000000815260040161173d90613081565b60405180910390fd5b8073ffffffffffffffffffffffffffffffffffffffff1660008054906101000a900473ffffffffffffffffffffffffffffffffffffffff1673ffffffffffffffffffffffffffffffffffffffff167f8be0079c531659141344cd1fd0a4f28419497f9722a3daafe3b4186f6b6457e060405160405180910390a3806000806101000a81548173ffffffffffffffffffffffffffffffffffffffff021916908373ffffffffffffffffffffffffffffffffffffffff16021790555050565b60026001541415611849576040517f08c379a000000000000000000000000000000000000000000000000000000000815260040161184090613321565b60405180910390fd5b600260018190555060006003828154811061186057fe5b906000526020600020906006020190508060050160149054906101000a900460ff16156118c2576040517f08c379a00000000000000000000000000000000000000000000000000000000081526004016118b990613061565b60405180910390fd5b3373ffffffffffffffffffffffffffffffffffffffff168160050160009054906101000a900473ffffffffffffffffffffffffffffffffffffffff1673ffffffffffffffffffffffffffffffffffffffff1614611954576040517f08c379a000000000000000000000000000000000000000000000000000000000815260040161194b906131c1565b60405180910390fd5b60008160030154141561199c576040517f08c379a000000000000000000000000000000000000000000000000000000000815260040161199390613361565b60405180910390fd5b428160040154826003015401106119e8576040517f08c379a00000000000000000000000000000000000000000000000000000000081526004016119df90613361565b60405180910390fd5b6000611a0664e8d4a510008360010154611c1690919063ffffffff16565b9050600082600001549050600083600101819055506000836000018190555060018360050160146101000a81548160ff021916908315150217905550600660008154809291906001019190505550611ac3600260009054906101000a900473ffffffffffffffffffffffffffffffffffffffff1633847f000000000000000000000000000000000000000000000000000000000000000073ffffffffffffffffffffffffffffffffffffffff16611cc1909392919063ffffffff16565b611b0e33827f000000000000000000000000000000000000000000000000000000000000000073ffffffffffffffffffffffffffffffffffffffff16611d4a9092919063ffffffff16565b8473ffffffffffffffffffffffffffffffffffffffff16843373ffffffffffffffffffffffffffffffffffffffff167f8166bf25f8a2b7ed3c85049207da4358d16edbed977d23fa2ee6f0dde3ec213285604051611b6c9190613381565b60405180910390a4505050600180819055505050565b60046020528060005260406000206000915090508060000154908060010154905082565b600080831415611bb95760009050611c10565b6000828402905082848281611bca57fe5b0414611c0b576040517f08c379a0000000000000000000000000000000000000000000000000000000008152600401611c02906131e1565b60405180910390fd5b809150505b92915050565b6000808211611c5a576040517f08c379a0000000000000000000000000000000000000000000000000000000008152600401611c5190613121565b60405180910390fd5b818381611c6357fe5b04905092915050565b600080828401905083811015611cb7576040517f08c379a0000000000000000000000000000000000000000000000000000000008152600401611cae906130a1565b60405180910390fd5b8091505092915050565b611d44846323b872dd60e01b858585604051602401611ce293929190612fc4565b604051602081830303815290604052907bffffffffffffffffffffffffffffffffffffffffffffffffffffffff19166020820180517bffffffffffffffffffffffffffffffffffffffffffffffffffffffff838183161783525050505061202e565b50505050565b611dcb8363a9059cbb60e01b8484604051602401611d69929190612ffb565b604051602081830303815290604052907bffffffffffffffffffffffffffffffffffffffffffffffffffffffff19166020820180517bffffffffffffffffffffffffffffffffffffffffffffffffffffffff838183161783525050505061202e565b505050565b600033905090565b600060046000838152602001908152602001600020600101549050600060046000848152602001908152602001600020600001549050600082118015611e2057506005548211155b611e5f576040517f08c379a0000000000000000000000000000000000000000000000000000000008152600401611e5690613201565b60405180910390fd5b6000611e9e64e8d4a51000611e906064611e82878a611ba690919063ffffffff16565b611c1690919063ffffffff16565b611ba690919063ffffffff16565b905060036040518060e001604052808781526020018381526020018581526020014281526020018481526020018873ffffffffffffffffffffffffffffffffffffffff168152602001600015158152509080600181540180825580915050600190039060005260206000209060060201600090919091909150600082015181600001556020820151816001015560408201518160020155606082015181600301556080820151816004015560a08201518160050160006101000a81548173ffffffffffffffffffffffffffffffffffffffff021916908373ffffffffffffffffffffffffffffffffffffffff16021790555060c08201518160050160146101000a81548160ff02191690831515021790555050506000611fcd60016003805490506120f590919063ffffffff16565b90508673ffffffffffffffffffffffffffffffffffffffff1684827f837110e44b2b338227970efcb2c50f2ed7896cee7637125c7ed52210be427da48986428960405161201d94939291906133c5565b60405180910390a450505050505050565b6060612090826040518060400160405280602081526020017f5361666545524332303a206c6f772d6c6576656c2063616c6c206661696c65648152508573ffffffffffffffffffffffffffffffffffffffff166121459092919063ffffffff16565b90506000815111156120f057808060200190518101906120b0919061249c565b6120ef576040517f08c379a00000000000000000000000000000000000000000000000000000000081526004016120e6906132c1565b60405180910390fd5b5b505050565b60008282111561213a576040517f08c379a0000000000000000000000000000000000000000000000000000000008152600401612131906130e1565b60405180910390fd5b818303905092915050565b6060612154848460008561215d565b90509392505050565b6060824710156121a2576040517f08c379a000000000000000000000000000000000000000000000000000000000815260040161219990613101565b60405180910390fd5b6121ab85612272565b6121ea576040517f08c379a00000000000000000000000000000000000000000000000000000000081526004016121e1906132a1565b60405180910390fd5b600060608673ffffffffffffffffffffffffffffffffffffffff1685876040516122149190612f92565b60006040518083038185875af1925050503d8060008114612251576040519150601f19603f3d011682016040523d82523d6000602084013e612256565b606091505b5091509150612266828286612285565b92505050949350505050565b600080823b905060008111915050919050565b60608315612295578290506122e5565b6000835111156122a85782518084602001fd5b816040517f08c379a00000000000000000000000000000000000000000000000000000000081526004016122dc919061303f565b60405180910390fd5b9392505050565b6040518060e001604052806000815260200160008152602001600081526020016000815260200160008152602001600073ffffffffffffffffffffffffffffffffffffffff1681526020016000151581525090565b60008135905061235081613575565b92915050565b60008083601f84011261236857600080fd5b8235905067ffffffffffffffff81111561238157600080fd5b60208301915083602082028301111561239957600080fd5b9250929050565b6000815190506123af8161358c565b92915050565b6000813590506123c4816135a3565b92915050565b6000815190506123d9816135a3565b92915050565b6000602082840312156123f157600080fd5b60006123ff84828501612341565b91505092915050565b60008060006040848603121561241d57600080fd5b600061242b86828701612341565b935050602084013567ffffffffffffffff81111561244857600080fd5b61245486828701612356565b92509250509250925092565b6000806040838503121561247357600080fd5b600061248185828601612341565b9250506020612492858286016123b5565b9150509250929050565b6000602082840312156124ae57600080fd5b60006124bc848285016123a0565b91505092915050565b6000602082840312156124d757600080fd5b60006124e5848285016123b5565b91505092915050565b60006020828403121561250057600080fd5b600061250e848285016123ca565b91505092915050565b6000806040838503121561252a57600080fd5b6000612538858286016123b5565b925050602061254985828601612341565b9150509250929050565b6000806040838503121561256657600080fd5b6000612574858286016123b5565b9250506020612585858286016123b5565b9150509250929050565b612598816134b6565b82525050565b60006125aa838561348f565b93507f07ffffffffffffffffffffffffffffffffffffffffffffffffffffffffffffff8311156125d957600080fd5b6020830292506125ea838584613522565b82840190509392505050565b6125ff816134c8565b82525050565b600061261082613479565b61261a818561349a565b935061262a818560208601613531565b80840191505092915050565b61263f816134fe565b82525050565b600061265082613484565b61265a81856134a5565b935061266a818560208601613531565b61267381613564565b840191505092915050565b600061268b6027836134a5565b91507f4469616d6f6e6448616e643a3a77697468647261773a3a20616c72656164792060008301527f636c61696d6564000000000000000000000000000000000000000000000000006020830152604082019050919050565b60006126f16026836134a5565b91507f4f776e61626c653a206e6577206f776e657220697320746865207a65726f206160008301527f64647265737300000000000000000000000000000000000000000000000000006020830152604082019050919050565b6000612757601b836134a5565b91507f536166654d6174683a206164646974696f6e206f766572666c6f7700000000006000830152602082019050919050565b60006127976022836134a5565b91507f656d657267656e637957697468647261773a20756e636c61696d656420706f6f60008301527f6c730000000000000000000000000000000000000000000000000000000000006020830152604082019050919050565b60006127fd601e836134a5565b91507f536166654d6174683a207375627472616374696f6e206f766572666c6f7700006000830152602082019050919050565b600061283d6026836134a5565b91507f416464726573733a20696e73756666696369656e742062616c616e636520666f60008301527f722063616c6c00000000000000000000000000000000000000000000000000006020830152604082019050919050565b60006128a3601a836134a5565b91507f536166654d6174683a206469766973696f6e206279207a65726f0000000000006000830152602082019050919050565b60006128e36022836134a5565b91507f4469616d6f6e6448616e643a3a6465706f7369743a3a20626164205f616d6f7560008301527f6e740000000000000000000000000000000000000000000000000000000000006020830152604082019050919050565b60006129496025836134a5565b91507f4469616d6f6e6448616e643a3a616464506f6f6c20626164205f706f6f6c536560008301527f7474696e670000000000000000000000000000000000000000000000000000006020830152604082019050919050565b60006129af6028836134a5565b91507f4469616d6f6e6448616e643a3a7769746864726177416c6c3a3a206e6f20766160008301527f6c696420706f6f6c0000000000000000000000000000000000000000000000006020830152604082019050919050565b6000612a156033836134a5565b91507f4469616d6f6e6448616e643a3a757064617465506f6f6c4475726174696f6e5360008301527f657474696e6720626164206475726174696f6e000000000000000000000000006020830152604082019050919050565b6000612a7b6022836134a5565b91507f4469616d6f6e6448616e643a3a77697468647261773a3a206f6e6c79206f776e60008301527f65720000000000000000000000000000000000000000000000000000000000006020830152604082019050919050565b6000612ae16021836134a5565b91507f536166654d6174683a206d756c7469706c69636174696f6e206f766572666c6f60008301527f77000000000000000000000000000000000000000000000000000000000000006020830152604082019050919050565b6000612b47601c836134a5565b91507f4469616d6f6e6448616e643a3a616464506f6f6c2062616420617079000000006000830152602082019050919050565b6000612b876020836134a5565b91507f4f776e61626c653a2063616c6c6572206973206e6f7420746865206f776e65726000830152602082019050919050565b6000612bc76029836134a5565b91507f4469616d6f6e6448616e643a3a7769746864726177416c6c3a3a20626164207060008301527f69647320617272617900000000000000000000000000000000000000000000006020830152604082019050919050565b6000612c2d6022836134a5565b91507f4469616d6f6e6448616e643a3a6465706f7369743a3a2062616420616464726560008301527f73730000000000000000000000000000000000000000000000000000000000006020830152604082019050919050565b6000612c936022836134a5565b91507f4469616d6f6e6448616e643a3a70656e64696e6750415942206e6f74206f776e60008301527f65720000000000000000000000000000000000000000000000000000000000006020830152604082019050919050565b6000612cf9601d836134a5565b91507f416464726573733a2063616c6c20746f206e6f6e2d636f6e74726163740000006000830152602082019050919050565b6000612d39602a836134a5565b91507f5361666545524332303a204552433230206f7065726174696f6e20646964206e60008301527f6f742073756363656564000000000000000000000000000000000000000000006020830152604082019050919050565b6000612d9f6029836134a5565b91507f4469616d6f6e6448616e643a3a757064617465506f6f6c41707953657474696e60008301527f67206261642061707900000000000000000000000000000000000000000000006020830152604082019050919050565b6000612e056028836134a5565b91507f4469616d6f6e6448616e643a3a6465706f7369743a3a2074726561737572792060008301527f6578636c756465640000000000000000000000000000000000000000000000006020830152604082019050919050565b6000612e6b601f836134a5565b91507f5265656e7472616e637947756172643a207265656e7472616e742063616c6c006000830152602082019050919050565b6000612eab6027836134a5565b91507f4469616d6f6e6448616e643a3a7570646174655472656173757279206261642060008301527f61646472657373000000000000000000000000000000000000000000000000006020830152604082019050919050565b6000612f116024836134a5565b91507f4469616d6f6e6448616e643a3a77697468647261773a3a2074696d6520696e7660008301527f616c6964000000000000000000000000000000000000000000000000000000006020830152604082019050919050565b612f73816134f4565b82525050565b6000612f8682848661259e565b91508190509392505050565b6000612f9e8284612605565b915081905092915050565b6000602082019050612fbe600083018461258f565b92915050565b6000606082019050612fd9600083018661258f565b612fe6602083018561258f565b612ff36040830184612f6a565b949350505050565b6000604082019050613010600083018561258f565b61301d6020830184612f6a565b9392505050565b60006020820190506130396000830184612636565b92915050565b600060208201905081810360008301526130598184612645565b905092915050565b6000602082019050818103600083015261307a8161267e565b9050919050565b6000602082019050818103600083015261309a816126e4565b9050919050565b600060208201905081810360008301526130ba8161274a565b9050919050565b600060208201905081810360008301526130da8161278a565b9050919050565b600060208201905081810360008301526130fa816127f0565b9050919050565b6000602082019050818103600083015261311a81612830565b9050919050565b6000602082019050818103600083015261313a81612896565b9050919050565b6000602082019050818103600083015261315a816128d6565b9050919050565b6000602082019050818103600083015261317a8161293c565b9050919050565b6000602082019050818103600083015261319a816129a2565b9050919050565b600060208201905081810360008301526131ba81612a08565b9050919050565b600060208201905081810360008301526131da81612a6e565b9050919050565b600060208201905081810360008301526131fa81612ad4565b9050919050565b6000602082019050818103600083015261321a81612b3a565b9050919050565b6000602082019050818103600083015261323a81612b7a565b9050919050565b6000602082019050818103600083015261325a81612bba565b9050919050565b6000602082019050818103600083015261327a81612c20565b9050919050565b6000602082019050818103600083015261329a81612c86565b9050919050565b600060208201905081810360008301526132ba81612cec565b9050919050565b600060208201905081810360008301526132da81612d2c565b9050919050565b600060208201905081810360008301526132fa81612d92565b9050919050565b6000602082019050818103600083015261331a81612df8565b9050919050565b6000602082019050818103600083015261333a81612e5e565b9050919050565b6000602082019050818103600083015261335a81612e9e565b9050919050565b6000602082019050818103600083015261337a81612f04565b9050919050565b60006020820190506133966000830184612f6a565b92915050565b60006040820190506133b16000830185612f6a565b6133be6020830184612f6a565b9392505050565b60006080820190506133da6000830187612f6a565b6133e76020830186612f6a565b6133f46040830185612f6a565b6134016060830184612f6a565b95945050505050565b600060e08201905061341f600083018a612f6a565b61342c6020830189612f6a565b6134396040830188612f6a565b6134466060830187612f6a565b6134536080830186612f6a565b61346060a083018561258f565b61346d60c08301846125f6565b98975050505050505050565b600081519050919050565b600081519050919050565b600081905092915050565b600081905092915050565b600082825260208201905092915050565b60006134c1826134d4565b9050919050565b60008115159050919050565b600073ffffffffffffffffffffffffffffffffffffffff82169050919050565b6000819050919050565b600061350982613510565b9050919050565b600061351b826134d4565b9050919050565b82818337600083830152505050565b60005b8381101561354f578082015181840152602081019050613534565b8381111561355e576000848401525b50505050565b6000601f19601f8301169050919050565b61357e816134b6565b811461358957600080fd5b50565b613595816134c8565b81146135a057600080fd5b50565b6135ac816134f4565b81146135b757600080fd5b5056fea26469706673582212202c3fc5fb6df3cd44a2dd4a33dabce5618722e8f5a5b0db562889e97e9c81318064736f6c634300060c0033",
  "linkReferences": {},
  "deployedLinkReferences": {}
}